:0400000080313028F3
:100008007E14803120007F08CB000B1F2B28210095
:10001800111E17282000111E172864088A0063087B
:100028000A0080312B282100911E23282000911ED0
:10003800232862088A0061080A0080312B282100E1
:10004800911C2B282000911C2B2886317926200012
:100058004B08FF007E100900803132288631F326D4
:100068008031E7002030840000308500243086315C
:10007800A6268031A03084000030850024308631E7
:10008800A6267E10200085316F2D2000D7005C0841
:10009800DA005B08D900D8016508580203186528FA
:1000A800590884005A08850000085706031965286E
:1000B8000630D9070030DA3D0130D3005308D8079D
:1000C8005028590884005A08850000088131B72152
:1000D80080312000D3005308B6005A08D4005908CC
:1000E800D30001305307840054080318540A8500CC
:1000F8001200031DD1285A08D4005908D300023031
:100108005307840054080318540A85001200031981
:10011800BD285A08D4005908D30002305307840078
:1001280054080318540A85000008D5005508C00073
:100138000130363E8600870120005A08D40059084D
:10014800D30002305307840054080318540A85006A
:100158000008D500D60152088400850112001E004F
:100168000130D5020030D63B56085504031DB2288D
:10017800C328C001C00AAA30D3005308B7003730DB
:100188002000D3005308CC00400884316E2480310D
:100198002000D4005408BF00FC285A08D40059088D
:1001A800D30002305307840054080318540A85000A
:1001B8000008D50055082100B10020005908840026
:1001C8005A0885000008D30053082100B000200019
:1001D8005A08D4005908D300033053078400540840
:1001E8000318540A85000008D50055082100BB00F3
:1001F8002000AF01AF0A08002000C4005C08C70057
:100208005B08C600C5016508450203181C29460895
:100218008400470885000008440603191C29063095
:10022800C6070030C73D0130F7007708C507072922
:10023800460884004708850000088231B3228131CE
:10024800F70077082000B6004708F8004608F700CE
:1002580001307707840078080318780A85001200AF
:10026800031D88294708F8004608F7000230770779
:10027800840078080318780A850012000319742985
:100288004708F8004608F700023077078400780826
:100298000318780A85000008F9007908C0000130C1
:1002A800363E8600870120004708F8004608F70018
:1002B80002307707840078080318780A8500000858
:1002C800F900FA0176088400850112001E00013049
:1002D800F9020030FA3B7A087904031D69297A2962
:1002E800C001C00AAA30F7007708B7003730F70016
:1002F8007708F00020004008843199248131F80003
:1003080078082000BF00B3294708F8004608F7001E
:1003180002307707840078080318780A85000008F7
:10032800F90079082100B100200046088400470838
:1003380085000008F70077082100B0002000470872
:10034800F8004608F7000330770784007808031898
:10035800780A85000008F90079082100BB00200010
:10036800AF01AF0A08002000CD004D08CC004C08B2
:10037800CE00CE1CC1290130C2290030CC004E1C51
:10038800C7290130C82900304C060319CE2920009E
:100398004E17D02920004E134E1DD4290130D529DF
:1003A8000030CC004E1FDA290130DB2900304C0622
:1003B8000319E12920004E17E32920004E134E1E91
:1003C800E7290130E8290030CC004E1FED29013023
:1003D800EE2900304C060319F42920004E17F6299F
:1003E80020004E13CE1DFA290130FB290030CC0025
:1003F800CE1C002A0130012A00304C060319072AB6
:100408002000CE17092A2000CE134E1E0D2A0130D7
:100418000E2A0030CC00CE1F132A0130142A0030D7
:100428004C0603191A2A2000CE171C2A2000CE13C6
:10043800CE1E202A0130212A0030CC00CE1F262AC9
:100448000130272A00304C0603192D2A2000CE1728
:100458002F2A2000CE130310CE1F0314031C372AA3
:100468002000CE17392A2000CE134E08080020009D
:10047800AB012808FB00FC017B08F0007C08F100B8
:100488000630F2000030F3008531A625823170086D
:1004980020005B07C80071085C3DC9004908FC00E2
:1004A8004808FB0004307B0784007C0803187C0A9A
:1004B800850012000319772A4908FC004808FB0048
:1004C80005307B0784007C0803187C0A8500000837
:1004D800FD007D08F60048088400490885000008EA
:1004E8008131002182310130FB007B082000A80700
:1004F800650828020318A8012808FB00FC017B08EE
:10050800F0007C08F1000630F2000030F30085317D
:10051800A6258231700820005B07C80071085C3D81
:10052800C9004908FC004808FB0004307B07840028
:100538007C0803187C0A850012000319772A4908E9
:10054800FC004808FB0004307B0784007C08031883
:100558007C0A85000008FD007D08AE000800F10057
:100568007108F0007008F200F21CBC2A0130BD2AA4
:100578000030F000721CC22A0130C32A0030700615
:100588000319C82A7217C92A7213721DCD2A01309D
:10059800CE2A0030F000721FD32A0130D42A00304E
:1005A80070060319D92A7217DA2A7213721EDE2A04
:1005B8000130DF2A0030F000721FE42A0130E52AFA
:1005C800003070060319EA2A7217EB2A7213F21D1B
:1005D800EF2A0130F02A0030F000F21CF52A013031
:1005E800F62A003070060319FB2AF217FC2AF213C8
:1005F800721E002B0130012B0030F000F21F062B79
:100608000130072B0030700603190C2BF2170D2B45
:10061800F213F21E112B0130122B0030F000F21FE2
:10062800172B0130182B0030700603191D2BF217F9
:100638001E2BF2130310F21F0314031C252BF217B1
:10064800262BF21372080800882B20002F03031DA5
:100658000800AF018631CE268331843141248331AD
:1006680000302000CC00CD000B30CE000030CF0091
:10067800363085318B252000AA01AA0A08002100FE
:10068800111A080023009E1C0800210031080319D4
:10069800592B3B0886315C2683318631C9260230C6
:1006A8002000D7005708AA0008002000AA01080067
:1006B8002D08031D6B2BAA010030CC00CD000C3097
:1006C800CE000030CF00B03085318B250800863150
:1006D800ED268331003A031908008431112483314F
:1006E800013A031D08008631CE2603302000D700CA
:1006F8005708AA000800210050088A004F080A007D
:1007080083312000AA01080020002A08003A0319B2
:10071800292B013A0319432B033A03195C2B013A9D
:1007280003197F2B972B080021009112DC30200041
:10073800CC000330CD008631B82683312100111258
:1007480052302000CC000530CD008631B2268331EE
:10075800083023009F0090309D0024309E00A03078
:100768009B0001309C00F5302000CC000630CD0005
:100778008631BE268331E3302000CC000630CD0020
:10078800863185268331F0302000CC000630CD003C
:1007980086318E262000B001B501B4010830CE00A4
:1007A8004E08E600B301B201B1012100911608001C
:1007B80020003308203E86008701810123001D1D8B
:1007C800F02B20003308203E860087018114600842
:1007D8008A005F080A00833123009D1CFF2B20003C
:1007E8003308203E860087010115210054088A003D
:1007F80053080A00833120003308203E8600870111
:10080800010803190E2C210052088A0051080A0019
:100818008431080086310B260800210031082000A9
:1008280029020318292C8431C32484312000D200E2
:100838002908023EB03E8600870152088100013037
:10084800D2005208A90700003F2C2000A901B230AD
:10085800D2005208CC002100310884316E24843142
:100868002000D3008431C324843120005306031DA3
:100878003F2C01300800003008008631EA26843118
:10088800003085310F258431553085310F2584316D
:100898002000360885310F25843121003108031DD9
:1008A80008002000CF0140084F0203186A2C4F08A7
:1008B800013E363E86008701010885310F258431C7
:1008C80001302000CE004E08CF07572C3F08853155
:1008D8000F2508002000CE00D001D101CF014E081D
:1008E8004F020318952C4C08860087010108500711
:1008F800D00051080318510AD1000130CD004D082D
:10090800CC0701305102003003195002031C902C0F
:10091800FF30D0020030D13B0130CD004D08CF0769
:10092800732CD009D10950080800F200F401F50130
:10093800F301720873020318BF2C70088600870140
:1009480001087407F40075080318750AF5000130EA
:10095800F1007108F00701307502003003197402C4
:10096800031CBA2CFF30F4020030F53B0130F100D3
:100978007108F3079D2CF409F50974080800200094
:10098800CD0131080319C52C3208203E86008701A5
:100998000108CC004C08B0003208A03E8600870150
:1009A8000108CC004C08CD000130CC004C08B2073F
:1009B800083032020318B2012100911201302000E0
:1009C800B1022100911620004D0808002000D40033
:1009D800210030083F392000D3005308D5005408BF
:1009E800860087010230B03E84008501083020006F
:1009F800D30012001E00D30BFD2C00302000CC00C9
:100A0800CD000C30CE000030CF00B03085318B25C2
:100A18002000550808002000CD0066080319112D94
:100A28002100111A1C2D20004D0823009A00302D9A
:100A3800111220004D08CC003508A83E8600870119
:100A48004C0881000130CC004C08B507083035024D
:100A58000318B5010130E602210011160800200034
:100A68002D03031D422D0130CA004A08AC07670850
:100A78002C02031C422D8631DF26853121005503C7
:100A8800031D080001302000CA004A08AB072E08E1
:100A98002B02031C080082313B220800083020008A
:100AA800660203186C2D3408A83E860087010108E9
:100AB80023009A000130F00070082000B4070830C5
:100AC80034020318B4010130F0007008E60708008A
:100AD8002100111208008631382685313430210072
:100AE800CD004D08CE0086316C268531CE302100F0
:100AF800CD004D082000D2000030803149208531DA
:100B08008331282385318531F32585317A2D2000DD
:100B1800D2005208D0005008D1000130CE02003077
:100B2800CF3B4E0A03194F0A031908004C08D0009E
:100B3800510886008701500881000130D000500814
:100B4800D107912DF401F501701CAE2D7208F40740
:100B58007308F53D0130F235F30D890BAF2D0130E7
:100B6800F136F00C890BB42D70087104031DA82D03
:100B78007508F1007408F00008002000D3004F0841
:100B8800DC004E08DB005308D2005208E50051088B
:100B98002100D000200050082100CF008631D72640
:100BA80085318631972685318631DB260800003469
:100BB80000340134003464344334013400340134E3
:100BC80000341434423402340134083464340034B8
:100BD800BC34033400340134053414344134C43093
:100BE8008431EA2485312000D60056082100CC0043
:100BF8004C08003A03190A2E013A03190A2E033A3F
:100C080003190A2E013A03190A2E0A2E0800230096
:100C18001908F00020003308A03E860087017008FC
:100C280081000130F0007008B30708303302031860
:100C3800B3010130F0007008B107080022008C01F0
:100C48008E013F3021008C003F308E000F30230092
:100C58008E0017308C0024008C018E01210095171E
:100C680022009D019E0108008631222686318631A8
:100C78009F2686318631D326863186314A268631AB
:100C880083319823863186316C260800F93020009C
:100C98009B009A01911021009114F4302000CC009F
:100CA8000630CD008631AC261D3020009C0008009F
:100CB8002000CE004E08CD004D08E70000308631F8
:100CC800C42686318631E7262000AD01AD0A08002A
:100CD800DB302000CE008530CF00F330D000053067
:100CE800D10004308531C1250800200091105D082D
:100CF8005E04031908005E088A005D080A00863150
:100D0800080020004D082100D40020004C082100D4
:100D1800D300080020004D082100D20020004C0814
:100D28002100D100080033302000CC000530CD0070
:100D38008631AC2608007A302100990098012200FB
:100D480096010800640080010131890BA72E003448
:100D580020004D08DE004C08DD00080020004D088A
:100D6800E4004C08E300080020004D08E2004C08AD
:100D7800E100080020004D08E0004C08DF000800F2
:100D88002000CC004C089A00080023001D16210002
:100D98009116080023001D12210091120800163038
:100DA8002100970008002000AC01AD0108002100D7
:100DB800D501D50A08002000AC01AD0108002300C8
:100DC8001D121D16080020001C15080023009E1582
:100DD800080020003108080086310B2608000A3474
:040DE80008000800F7
:020000040001F9
:04000E00E4FFFFFE0E
:00000001FF
